:020000040000FA
:10000000000002288316003085008030860084308E
:100010008100831207309F00850186018B01C80192
:10002000C601C701A101BB01B4016C242420861FB5
:100030001D28C61FC60A2F2117282420861B162814
:10004000C61FC60A2F211E28C70A460803196B2897
:100050006400C6012110FD3E031C21140318C701D2
:10006000E73048070318C801480882079828AA28DB
:10007000B528C728CE28C728CE28C728CE28C72805
:10008000CE28C728CE28C728CE28C728CE28C728DC
:10009000D728E328F52807291D292929C801211C6B
:1000A000762B2008031987297108720673067406D7
:1000B0007506031D792BA0197A2BC701A1117208AF
:1000C000E0390319402CF21F692872080F39BB0070
:1000D000BB1708000800C801C7016C2BA20A073033
:1000E0002205820744298D29D229142A5A2A9C2ABA
:1000F000E22A242B4508003803198B287208F300E4
:10010000073071058207E62BE62BE62BE62BDE2B6C
:10011000F22B080008007208F3000730710582070F
:10012000C92BCC2BCF2BD22BD52BF22BD82BDB2BC7
:10013000EC304707031C8729C80AF301F401A0012A
:10014000B6010000000000000000000000000000F8
:1001500000000800211CC80A000000000000000088
:100160000000000000000000792BC80A2118C80117
:10017000000000000000000000000000000000007F
:100180000000000000000000000000000800C80A95
:10019000031021180314F50D88298C29C80A211C85
:1001A000D428751CC80188297518C801782B211C12
:1001B000DC28751CC809DF287518C8090000B60AB4
:1001C0003608C80789290230C8007508F1002118CF
:1001D000C80171080319A014BF3A0319201571084A
:1001E0007F39903E0318A01508000230C80075083A
:1001F000F2002118C80172087039031D201124066D
:100200000319201471082306031D2010080021186B
:100210000E290230C8007508F300782B1830C8008A
:10022000A1102111720870392D06031920167108CA
:100230002C06031D2012000008002118242902307A
:10024000C8007508F400782B1830C800A1142111DB
:100250006A2BC80A211CC801A114211588293F3026
:100260000102031C6E28BC0A810100000A303C0216
:10027000031C712BBC01BD0ABE0ABF0AC00AC10A19
:10028000C20AC30AC40A772BBB1F5C293B08073983
:10029000003A031D612935187C292B187029251C6B
:1002A0006529BB1D58290514BC01BD01BB138B2951
:1002B0000510BB13000089290000000000000000A9
:1002C000000000000000000000000000000000002E
:1002D000000026080319CD283D0203180510080068
:1002E00034187A293414B41085100514BC01BD01EA
:1002F000BB138B29BB136929BB1D6729201C8329CC
:100300000510BB136B2B0610BB138929872988297D
:100310006A2B8A298B2900000800BB1FA4293B08EF
:100320000739013A031DA9293518C4292B18B82902
:10033000A51CAD29BB1DA1298514BC01BE01BB13A1
:100340008A298510BB138A290000000000000000E4
:10035000000000000000000000000000000000009D
:100360000000260803198A293E0203188510080098
:10037000B418C229B414341005108514BC01BE0190
:10038000BB138B29BB13B129BB1DAF29201CCD2961
:100390000514BC01BD01BB13792B0614BC01C101BE
:1003A000BB138A29BB1FEA293B080739023A031D00
:1003B000EF2935180A2AAB18FE29A51CF329BB1D05
:1003C000E6290515BC01BF01BB138B290511BB1321
:1003D000000089290000000000000000000000006B
:1003E00000000000000000000000000000002708DE
:1003F00003198A293F020318051108003419082A35
:100400003415B41185110515BC01BF01BB138B292F
:10041000BB13F729BB1DF529201C112A8510BB131E
:100420006B2B8610BB138929BB1F2C2A3B0807396D
:10043000033A031D312A35184C2AAB18402AA51D52
:10044000352ABB1D282A8515BC01C001BB138A298A
:100450008511BB1300008A29000000000000000085
:10046000000000000000000000000000000000008C
:100470000000270803198A29400203188511080083
:10048000B4194A2AB415341105118515BC01C001EF
:10049000BB138A29BB13392ABB1D372A201C552AB6
:1004A0008514BC01BE01BB13792B8614BC01C201AB
:1004B000BB138A29BB1F722A3B080739043A031D64
:1004C000772A3518922A2B19862A251E7B2ABB1DCE
:1004D0006E2A0614BC01C101BB138A290610BB1386
:1004E000000089290000000000000000000000005A
:1004F00000000000000000000000000000002808CC
:1005000003198A294102031806100800341A902A98
:100510003416B41286100614BC01C101BB138B291A
:10052000BB137F2ABB1D7D2A201C992A0511BB13F2
:100530006B2B0611BB138929BB1FB42A3B08073953
:10054000053A031DB92A3518D42A2B19C82AA51E25
:10055000BD2ABB1DB02A8614BC01C201BB138A2967
:100560008610BB1300008929000000000000000075
:10057000000000000000000000000000000000007B
:100580000000280803198A2942020318861008006F
:10059000B41AD22AB416341206108614BC01C20151
:1005A000BB138B29BB13C12ABB1DBF2A201CDD2A0C
:1005B0000515BC01BF01BB13792B0615BC01C30196
:1005C000BB138A29BB1FFA2A3B080739063A031DC9
:1005D000FF2A35181A2BAB190E2B251F032BBB1D19
:1005E000F62A0615BC01C301BB138A290611BB13E9
:1005F00000008A2900000000000000000000000048
:1006000000000000000000000000000000002908B9
:1006100003198A294302031806110800341B182BFA
:100620003417B41386110615BC01C301BB138B2903
:10063000BB13072BBB1D052B201C212B8511BB13C6
:100640006B2B8611BB138929BB1F3C2B3B08073939
:10065000073A031D412B35185C2BAB19502BA51FF6
:10066000452BBB1D382B8615BC01C401BB138A2941
:100670008611BB1300008A29000000000000000062
:10068000000000000000000000000000000000006A
:100690000000290803198A2944020318861108005A
:1006A000B41B5A2BB417341306118615BC01C401B0
:1006B000BB138A29BB13492BBB1D472B201C652B61
:1006C0008515BC01C001BB13792B8615BC01C40183
:1006D000BB138A298929792B6D2B6F2B3929702B14
:1006E000722B732B742B5028752B8629772BD628C9
:1006F0006B2BCD28211DA11D0800C7010000B023D0
:10070000003803190800A11C7A287108FC39743AD2
:100710000319FC2B083A0319912B043A03191A2CDC
:1007200008007208063A03190800013A0319080084
:100730001B3A03190800203072020319A72B093055
:1007400072020318080072083518213EA82B72089F
:1007500083169B0073089A0064001C155B244F2CC1
:1007600071083706031DC02B72083806031DC02B05
:1007700073083906031DC02B74083A060319FF34A9
:100780007108B7007208B8007308B9007408BA009D
:1007900000340030F200EF2B0230F200EF2B033078
:1007A000F200EF2B0430F200EF2B0530F200EF2BBC
:1007B0000630F200EF2B0730F200EF2B1C3035181B
:1007C000213EF200EF2B2030F200EF2B4503F20028
:1007D0000310F20D0310F20D03307105F207F11D45
:1007E000FC2B912BF11DF72B7308C5000800450861
:1007F0007306031D08004F2C0D2403180800203039
:100800007206031D052C7208082C72083518213E4B
:1008100066247306031D08004F2C1C307206031952
:10082000182C203072060319182C093072020800A7
:10083000031008000D240318080073080739CB00C3
:10084000CB0ACA010314CA0DCB0B232C203072062D
:1008500003192E2C72083518213E2F2C720866249D
:10086000CB00731A3A2C4A084B05F3194A060319B0
:100870004F2C08004A084B04F31D4A069A00A32B8C
:10088000211DA1180800720803194A2C0E3A0319F9
:100890004F2C0800BB01A01C0800A1156A286400A9
:1008A000061781010530C900011F542C0113C90B23
:1008B000542C0613080055309D00AA309D009C144E
:1008C0009C18602C1C1183126C24080083169B005A
:1008D0001C141A088312080000306624A300A31712
:1008E00001306624A50002306624A6000330662489
:1008F000A70004306624A80005306624A90008304B
:100900006624A400A40DA40DA40DA40DA4097030A8
:10091000A40520306624AB0021306624AC00AC175F
:1009200022306624AE0023306624AF0024306624D3
:10093000B00025306624B10026306624B20029308C
:100940006624AD00AD0DAD0DAD0DAD0DAD09703032
:0A095000AD05B501AB1B351408001E
:02400E00663F0B
:104200000100FF0000000000000000000500A50004
:024210000000AC
:02423800800004
:104240008F000200FF0000000000000000000500D9
:04425000A5000000C5
:024276008000C6
:00000001FF
